{
  "contractName": "MediaStore",
  "abi": [
    {
      "constant": false,
      "inputs": [
        {
          "name": "mediaHash",
          "type": "string"
        },
        {
          "name": "tagString",
          "type": "string"
        }
      ],
      "name": "addMedia",
      "outputs": [],
      "payable": false,
      "stateMutability": "nonpayable",
      "type": "function"
    },
    {
      "constant": true,
      "inputs": [
        {
          "name": "mediaHash",
          "type": "string"
        }
      ],
      "name": "getMediaDetByHash",
      "outputs": [
        {
          "name": "creatorAddress",
          "type": "address"
        },
        {
          "name": "allTags",
          "type": "string"
        },
        {
          "name": "claps",
          "type": "uint32"
        }
      ],
      "payable": false,
      "stateMutability": "view",
      "type": "function"
    }
  ],
  "bytecode": "0x6060604052341561000f57600080fd5b6109a28061001e6000396000f30060606040526004361061004c576000357c0100000000000000000000000000000000000000000000000000000000900463ffffffff1680633240fc8f146100515780639c0a72ad146100f1575b600080fd5b341561005c57600080fd5b6100ef600480803590602001908201803590602001908080601f0160208091040260200160405190810160405280939291908181526020018383808284378201915050505050509190803590602001908201803590602001908080601f0160208091040260200160405190810160405280939291908181526020018383808284378201915050505050509190505061020d565b005b34156100fc57600080fd5b61014c600480803590602001908201803590602001908080601f0160208091040260200160405190810160405280939291908181526020018383808284378201915050505050509190505061056d565b604051808473ffffffffffffffffffffffffffffffffffffffff1673ffffffffffffffffffffffffffffffffffffffff168152602001806020018363ffffffff1663ffffffff168152602001828103825284818151815260200191508051906020019080838360005b838110156101d05780820151818401526020810190506101b5565b50505050905090810190601f1680156101fd5780820380516001836020036101000a031916815260200191505b5094505050505060405180910390f35b610215610822565b61021d610822565b83915082905060008251118015610235575060008151115b151561024057600080fd5b6004846040518082805190602001908083835b6020831015156102785780518252602082019150602081019050602083039250610253565b6001836020036101000a038019825116818451168082178552505050505050905001915050908152602001604051809103902060030160049054906101000a900460ff161515156102c857600080fd5b60a0604051908101604052803373ffffffffffffffffffffffffffffffffffffffff168152602001848152602001858152602001600063ffffffff168152602001600115158152506000808201518160000160006101000a81548173ffffffffffffffffffffffffffffffffffffffff021916908373ffffffffffffffffffffffffffffffffffffffff1602179055506020820151816001019080519060200190610374929190610836565b506040820151816002019080519060200190610391929190610836565b5060608201518160030160006101000a81548163ffffffff021916908363ffffffff16021790555060808201518160030160046101000a81548160ff02191690831515021790555090505060006004856040518082805190602001908083835b60208310151561041657805182526020820191506020810190506020830392506103f1565b6001836020036101000a03801982511681845116808217855250505050505090500191505090815260200160405180910390206000820160009054906101000a900473ffffffffffffffffffffffffffffffffffffffff168160000160006101000a81548173ffffffffffffffffffffffffffffffffffffffff021916908373ffffffffffffffffffffffffffffffffffffffff160217905550600182018160010190805460018160011615610100020316600290046104d79291906108b6565b50600282018160020190805460018160011615610100020316600290046104ff9291906108b6565b506003820160009054906101000a900463ffffffff168160030160006101000a81548163ffffffff021916908363ffffffff1602179055506003820160049054906101000a900460ff168160030160046101000a81548160ff02191690831515021790555090505050505050565b600061057761093d565b60006004846040518082805190602001908083835b6020831015156105b1578051825260208201915060208101905060208303925061058c565b6001836020036101000a038019825116818451168082178552505050505050905001915050908152602001604051809103902060030160049054906101000a900460ff16151561060057600080fd5b6004846040518082805190602001908083835b6020831015156106385780518252602082019150602081019050602083039250610613565b6001836020036101000a038019825116818451168082178552505050505050905001915050908152602001604051809103902060000160009054906101000a900473ffffffffffffffffffffffffffffffffffffffff1692506004846040518082805190602001908083835b6020831015156106c957805182526020820191506020810190506020830392506106a4565b6001836020036101000a03801982511681845116808217855250505050505090500191505090815260200160405180910390206001018054600181600116156101000203166002900480601f0160208091040260200160405190810160405280929190818152602001828054600181600116156101000203166002900480156107935780601f1061076857610100808354040283529160200191610793565b820191906000526020600020905b81548152906001019060200180831161077657829003601f168201915b505050505091506004846040518082805190602001908083835b6020831015156107d257805182526020820191506020810190506020830392506107ad565b6001836020036101000a038019825116818451168082178552505050505050905001915050908152602001604051809103902060030160009054906101000a900463ffffffff1690509193909250565b602060405190810160405280600081525090565b828054600181600116156101000203166002900490600052602060002090601f016020900481019282601f1061087757805160ff19168380011785556108a5565b828001600101855582156108a5579182015b828111156108a4578251825591602001919060010190610889565b5b5090506108b29190610951565b5090565b828054600181600116156101000203166002900490600052602060002090601f016020900481019282601f106108ef578054855561092c565b8280016001018555821561092c57600052602060002091601f016020900482015b8281111561092b578254825591600101919060010190610910565b5b5090506109399190610951565b5090565b602060405190810160405280600081525090565b61097391905b8082111561096f576000816000905550600101610957565b5090565b905600a165627a7a72305820a11eabd5cf2acabe2e9a0a783ae25fb620c6b3be1294dd929863ced59c9a355a0029",
  "source": "pragma solidity  ^0.4.2;\n\nimport \"./helper_contracts/MediaLib.sol\";\n\ncontract MediaStore {\n\n    using MediaLib for *;\n    MediaLib.Media mediaObj;\n    \n    mapping (string => MediaLib.Media) private mediaList;\n\n    /// addMedia content \n    function addMedia(string mediaHash,string tagString) public {\n        \n        bytes memory mediaHashTemp = bytes(mediaHash);\n        bytes memory tagStringTemp = bytes(tagString);\n                \n        //passed parameters are blank, check if new media\n        require(mediaHashTemp.length > 0 && tagStringTemp.length > 0);\n        \n        // media should not be already added\n        require(!mediaList[mediaHash].exists);\n\n        //Creating media object\n        mediaObj = MediaLib.Media({\n            creatorAddress : msg.sender,\n            tag : tagString,\n            claps : 0,\n            id: mediaHash,\n            exists : true\n        });\n        \n        //storing new media into mapping\n        mediaList[mediaHash] = mediaObj;\n    }\n    \n    /// fetch content \n    function getMediaDetByHash(string mediaHash) public view returns(address creatorAddress,\n    string allTags, uint32 claps){\n        //check if media exisit or not \n        require(mediaList[mediaHash].exists);\n        \n        creatorAddress = mediaList[mediaHash].creatorAddress;\n        allTags = mediaList[mediaHash].tag;\n        claps = mediaList[mediaHash].claps;\n    }\n    \n}\n",
  "sourcePath": "C:\\proj\\hypermine\\training-boilerplate\\contracts\\MediaStore.sol",
  "compiler": {
    "name": "solc",
    "version": "0.4.18+commit.9cf6e910.Emscripten.clang"
  },
  "schemaVersion": "1.0.1",
  "updatedAt": "2018-08-12T06:14:14.313Z"
}