{
  "contractName": "MediaStore",
  "abi": [
    {
      "constant": false,
      "inputs": [
        {
          "name": "mediaHash",
          "type": "string"
        },
        {
          "name": "tagString",
          "type": "string"
        }
      ],
      "name": "addMedia",
      "outputs": [],
      "payable": false,
      "stateMutability": "nonpayable",
      "type": "function"
    },
    {
      "constant": true,
      "inputs": [
        {
          "name": "mediaHash",
          "type": "string"
        }
      ],
      "name": "getMediaDetByHash",
      "outputs": [
        {
          "name": "creatorAddress",
          "type": "address"
        },
        {
          "name": "allTags",
          "type": "string"
        },
        {
          "name": "claps",
          "type": "uint32"
        }
      ],
      "payable": false,
      "stateMutability": "view",
      "type": "function"
    }
  ],
  "bytecode": "0x608060405234801561001057600080fd5b50610982806100206000396000f30060806040526004361061004c576000357c0100000000000000000000000000000000000000000000000000000000900463ffffffff1680633240fc8f146100515780639c0a72ad14610100575b600080fd5b34801561005d57600080fd5b506100fe600480360381019080803590602001908201803590602001908080601f0160208091040260200160405190810160405280939291908181526020018383808284378201915050505050509192919290803590602001908201803590602001908080601f0160208091040260200160405190810160405280939291908181526020018383808284378201915050505050509192919290505050610228565b005b34801561010c57600080fd5b50610167600480360381019080803590602001908201803590602001908080601f016020809104026020016040519081016040528093929190818152602001838380828437820191505050505050919291929050505061057b565b604051808473ffffffffffffffffffffffffffffffffffffffff1673ffffffffffffffffffffffffffffffffffffffff168152602001806020018363ffffffff1663ffffffff168152602001828103825284818151815260200191508051906020019080838360005b838110156101eb5780820151818401526020810190506101d0565b50505050905090810190601f1680156102185780820380516001836020036101000a031916815260200191505b5094505050505060405180910390f35b60608083915082905060008251118015610243575060008151115b151561024e57600080fd5b6004846040518082805190602001908083835b6020831015156102865780518252602082019150602081019050602083039250610261565b6001836020036101000a038019825116818451168082178552505050505050905001915050908152602001604051809103902060030160049054906101000a900460ff161515156102d657600080fd5b60a0604051908101604052803373ffffffffffffffffffffffffffffffffffffffff168152602001848152602001858152602001600063ffffffff168152602001600115158152506000808201518160000160006101000a81548173ffffffffffffffffffffffffffffffffffffffff021916908373ffffffffffffffffffffffffffffffffffffffff160217905550602082015181600101908051906020019061038292919061082a565b50604082015181600201908051906020019061039f92919061082a565b5060608201518160030160006101000a81548163ffffffff021916908363ffffffff16021790555060808201518160030160046101000a81548160ff02191690831515021790555090505060006004856040518082805190602001908083835b60208310151561042457805182526020820191506020810190506020830392506103ff565b6001836020036101000a03801982511681845116808217855250505050505090500191505090815260200160405180910390206000820160009054906101000a900473ffffffffffffffffffffffffffffffffffffffff168160000160006101000a81548173ffffffffffffffffffffffffffffffffffffffff021916908373ffffffffffffffffffffffffffffffffffffffff160217905550600182018160010190805460018160011615610100020316600290046104e59291906108aa565b506002820181600201908054600181600116156101000203166002900461050d9291906108aa565b506003820160009054906101000a900463ffffffff168160030160006101000a81548163ffffffff021916908363ffffffff1602179055506003820160049054906101000a900460ff168160030160046101000a81548160ff02191690831515021790555090505050505050565b6000606060006004846040518082805190602001908083835b6020831015156105b95780518252602082019150602081019050602083039250610594565b6001836020036101000a038019825116818451168082178552505050505050905001915050908152602001604051809103902060030160049054906101000a900460ff16151561060857600080fd5b6004846040518082805190602001908083835b602083101515610640578051825260208201915060208101905060208303925061061b565b6001836020036101000a038019825116818451168082178552505050505050905001915050908152602001604051809103902060000160009054906101000a900473ffffffffffffffffffffffffffffffffffffffff1692506004846040518082805190602001908083835b6020831015156106d157805182526020820191506020810190506020830392506106ac565b6001836020036101000a03801982511681845116808217855250505050505090500191505090815260200160405180910390206001018054600181600116156101000203166002900480601f01602080910402602001604051908101604052809291908181526020018280546001816001161561010002031660029004801561079b5780601f106107705761010080835404028352916020019161079b565b820191906000526020600020905b81548152906001019060200180831161077e57829003601f168201915b505050505091506004846040518082805190602001908083835b6020831015156107da57805182526020820191506020810190506020830392506107b5565b6001836020036101000a038019825116818451168082178552505050505050905001915050908152602001604051809103902060030160009054906101000a900463ffffffff1690509193909250565b828054600181600116156101000203166002900490600052602060002090601f016020900481019282601f1061086b57805160ff1916838001178555610899565b82800160010185558215610899579182015b8281111561089857825182559160200191906001019061087d565b5b5090506108a69190610931565b5090565b828054600181600116156101000203166002900490600052602060002090601f016020900481019282601f106108e35780548555610920565b8280016001018555821561092057600052602060002091601f016020900482015b8281111561091f578254825591600101919060010190610904565b5b50905061092d9190610931565b5090565b61095391905b8082111561094f576000816000905550600101610937565b5090565b905600a165627a7a7230582013c2ad6850c8dccfcf5294d7e2b47040b7a09dede3fdc5aa70286d65bd33d0b00029",
  "source": "pragma solidity  ^0.4.2;\r\n\r\nimport \"./helper_contracts/MediaLib.sol\";\r\n\r\ncontract MediaStore {\r\n\r\n    using MediaLib for *;\r\n    MediaLib.Media mediaObj;\r\n    \r\n    mapping (string => MediaLib.Media) private mediaList;\r\n\r\n    /// addMedia content \r\n    function addMedia(string mediaHash,string tagString) public {\r\n        \r\n        bytes memory mediaHashTemp = bytes(mediaHash);\r\n        bytes memory tagStringTemp = bytes(tagString);\r\n                \r\n        //passed parameters are blank, check if new media\r\n        require(mediaHashTemp.length > 0 && tagStringTemp.length > 0);\r\n        \r\n        // media should not be already added\r\n        require(!mediaList[mediaHash].exists);\r\n\r\n        //Creating media object\r\n        mediaObj = MediaLib.Media({\r\n            creatorAddress : msg.sender,\r\n            tag : tagString,\r\n            claps : 0,\r\n            id: mediaHash,\r\n            exists : true\r\n        });\r\n        \r\n        //storing new media into mapping\r\n        mediaList[mediaHash] = mediaObj;\r\n    }\r\n    \r\n    /// fetch content \r\n    function getMediaDetByHash(string mediaHash) public view returns(address creatorAddress,\r\n    string allTags, uint32 claps){\r\n        //check if media exisit or not \r\n        require(mediaList[mediaHash].exists);\r\n        \r\n        creatorAddress = mediaList[mediaHash].creatorAddress;\r\n        allTags = mediaList[mediaHash].tag;\r\n        claps = mediaList[mediaHash].claps;\r\n    }\r\n    \r\n}\r\n",
  "sourcePath": "C:\\Users\\Siddharth\\Desktop\\hypermine\\training-boilerplate\\contracts\\MediaStore.sol",
  "compiler": {
    "name": "solc",
    "version": "0.4.24+commit.e67f0147.Emscripten.clang"
  },
  "schemaVersion": "2.0.1",
  "updatedAt": "2018-08-25T20:15:00.285Z"
}