{
  "contractName": "TestContract",
  "abi": [
    {
      "constant": true,
      "inputs": [],
      "name": "storedData",
      "outputs": [
        {
          "name": "",
          "type": "uint256"
        }
      ],
      "payable": false,
      "stateMutability": "view",
      "type": "function"
    },
    {
      "constant": false,
      "inputs": [
        {
          "name": "x",
          "type": "uint256"
        }
      ],
      "name": "set",
      "outputs": [],
      "payable": false,
      "stateMutability": "nonpayable",
      "type": "function"
    },
    {
      "constant": true,
      "inputs": [],
      "name": "get",
      "outputs": [
        {
          "name": "data_",
          "type": "uint256"
        }
      ],
      "payable": false,
      "stateMutability": "view",
      "type": "function"
    }
  ],
  "bytecode": "0x60606040526014600055341561001457600080fd5b610109806100236000396000f3006060604052600436106053576000357c0100000000000000000000000000000000000000000000000000000000900463ffffffff1680632a1afcd914605857806360fe47b114607e5780636d4ce63c14609e575b600080fd5b3415606257600080fd5b606860c4565b6040518082815260200191505060405180910390f35b3415608857600080fd5b609c600480803590602001909190505060ca565b005b341560a857600080fd5b60ae60d4565b6040518082815260200191505060405180910390f35b60005481565b8060008190555050565b600080549050905600a165627a7a72305820a937a4c410396f0ac04c065b78dc7ae408fa0ebd62e9f5a8e5a83f415de217be0029",
  "source": "pragma solidity ^0.4.2;\r\n\r\ncontract TestContract {\r\n    uint public storedData = 20;\r\n\r\n    function set(uint x) public {\r\n        storedData = x;\r\n    }\r\n\r\n    function get() public view returns (uint data_) {\r\n        data_ = storedData;\r\n    }\r\n}",
  "sourcePath": "C:\\proj\\hypermine\\training-boilerplate\\contracts\\TestContract.sol",
  "compiler": {
    "name": "solc",
    "version": "0.4.18+commit.9cf6e910.Emscripten.clang"
  },
  "schemaVersion": "1.0.1",
  "updatedAt": "2018-08-08T17:53:31.070Z"
}